{
  "contractName": "CredentialRegistry",
  "abi": [
    {
      "inputs": [],
      "stateMutability": "nonpayable",
      "type": "constructor"
    },
    {
      "anonymous": false,
      "inputs": [
        {
          "indexed": true,
          "internalType": "bytes32",
          "name": "credentialId",
          "type": "bytes32"
        },
        {
          "indexed": false,
          "internalType": "string",
          "name": "studentId",
          "type": "string"
        }
      ],
      "name": "CredentialIssued",
      "type": "event"
    },
    {
      "anonymous": false,
      "inputs": [
        {
          "indexed": true,
          "internalType": "bytes32",
          "name": "credentialId",
          "type": "bytes32"
        }
      ],
      "name": "CredentialRevoked",
      "type": "event"
    },
    {
      "anonymous": false,
      "inputs": [
        {
          "indexed": true,
          "internalType": "address",
          "name": "issuer",
          "type": "address"
        }
      ],
      "name": "IssuerAuthorized",
      "type": "event"
    },
    {
      "inputs": [],
      "name": "admin",
      "outputs": [
        {
          "internalType": "address",
          "name": "",
          "type": "address"
        }
      ],
      "stateMutability": "view",
      "type": "function",
      "constant": true
    },
    {
      "inputs": [
        {
          "internalType": "address",
          "name": "",
          "type": "address"
        }
      ],
      "name": "authorizedIssuers",
      "outputs": [
        {
          "internalType": "bool",
          "name": "",
          "type": "bool"
        }
      ],
      "stateMutability": "view",
      "type": "function",
      "constant": true
    },
    {
      "inputs": [
        {
          "internalType": "bytes32",
          "name": "",
          "type": "bytes32"
        }
      ],
      "name": "credentials",
      "outputs": [
        {
          "internalType": "string",
          "name": "studentId",
          "type": "string"
        },
        {
          "internalType": "string",
          "name": "studentName",
          "type": "string"
        },
        {
          "internalType": "string",
          "name": "degree",
          "type": "string"
        },
        {
          "internalType": "string",
          "name": "major",
          "type": "string"
        },
        {
          "internalType": "uint256",
          "name": "issueDate",
          "type": "uint256"
        },
        {
          "internalType": "string",
          "name": "ipfsHash",
          "type": "string"
        },
        {
          "internalType": "bool",
          "name": "isRevoked",
          "type": "bool"
        },
        {
          "internalType": "address",
          "name": "issuer",
          "type": "address"
        }
      ],
      "stateMutability": "view",
      "type": "function",
      "constant": true
    },
    {
      "inputs": [
        {
          "internalType": "address",
          "name": "_issuer",
          "type": "address"
        }
      ],
      "name": "authorizeIssuer",
      "outputs": [],
      "stateMutability": "nonpayable",
      "type": "function"
    },
    {
      "inputs": [
        {
          "internalType": "string",
          "name": "_studentId",
          "type": "string"
        },
        {
          "internalType": "string",
          "name": "_studentName",
          "type": "string"
        },
        {
          "internalType": "string",
          "name": "_degree",
          "type": "string"
        },
        {
          "internalType": "string",
          "name": "_major",
          "type": "string"
        },
        {
          "internalType": "string",
          "name": "_ipfsHash",
          "type": "string"
        }
      ],
      "name": "issueCredential",
      "outputs": [
        {
          "internalType": "bytes32",
          "name": "",
          "type": "bytes32"
        }
      ],
      "stateMutability": "nonpayable",
      "type": "function"
    },
    {
      "inputs": [
        {
          "internalType": "bytes32",
          "name": "_credentialId",
          "type": "bytes32"
        }
      ],
      "name": "verifyCredential",
      "outputs": [
        {
          "internalType": "string",
          "name": "studentName",
          "type": "string"
        },
        {
          "internalType": "string",
          "name": "degree",
          "type": "string"
        },
        {
          "internalType": "string",
          "name": "major",
          "type": "string"
        },
        {
          "internalType": "uint256",
          "name": "issueDate",
          "type": "uint256"
        },
        {
          "internalType": "bool",
          "name": "isValid",
          "type": "bool"
        }
      ],
      "stateMutability": "view",
      "type": "function",
      "constant": true
    },
    {
      "inputs": [
        {
          "internalType": "bytes32",
          "name": "_credentialId",
          "type": "bytes32"
        }
      ],
      "name": "revokeCredential",
      "outputs": [],
      "stateMutability": "nonpayable",
      "type": "function"
    }
  ],
  "bytecode": "0x608060405234801561001057600080fd5b5033600260006101000a81548173ffffffffffffffffffffffffffffffffffffffff021916908373ffffffffffffffffffffffffffffffffffffffff16021790555060018060003373ffffffffffffffffffffffffffffffffffffffff1673ffffffffffffffffffffffffffffffffffffffff16815260200190815260200160002060006101000a81548160ff021916908315150217905550611922806100b86000396000f3fe608060405234801561001057600080fd5b506004361061007d5760003560e01c8063a311467c1161005b578063a311467c14610109578063ca6eec7814610139578063f731fa0f14610155578063f851a440146101855761007d565b8063299d034814610082578063436693d5146100b95780634dbf87cc146100d5575b600080fd5b61009c60048036038101906100979190610e54565b6101a3565b6040516100b0989796959493929190610f86565b60405180910390f35b6100d360048036038101906100ce9190611053565b6104c0565b005b6100ef60048036038101906100ea9190610e54565b6105ed565b604051610100959493929190611080565b60405180910390f35b610123600480360381019061011e919061121d565b6109e1565b6040516101309190611333565b60405180910390f35b610153600480360381019061014e9190610e54565b610c82565b005b61016f600480360381019061016a9190611053565b610dc4565b60405161017c919061134e565b60405180910390f35b61018d610de4565b60405161019a9190611369565b60405180910390f35b60006020528060005260406000206000915090508060000180546101c6906113b3565b80601f01602080910402602001604051908101604052809291908181526020018280546101f2906113b3565b801561023f5780601f106102145761010080835404028352916020019161023f565b820191906000526020600020905b81548152906001019060200180831161022257829003601f168201915b505050505090806001018054610254906113b3565b80601f0160208091040260200160405190810160405280929190818152602001828054610280906113b3565b80156102cd5780601f106102a2576101008083540402835291602001916102cd565b820191906000526020600020905b8154815290600101906020018083116102b057829003601f168201915b5050505050908060020180546102e2906113b3565b80601f016020809104026020016040519081016040528092919081815260200182805461030e906113b3565b801561035b5780601f106103305761010080835404028352916020019161035b565b820191906000526020600020905b81548152906001019060200180831161033e57829003601f168201915b505050505090806003018054610370906113b3565b80601f016020809104026020016040519081016040528092919081815260200182805461039c906113b3565b80156103e95780601f106103be576101008083540402835291602001916103e9565b820191906000526020600020905b8154815290600101906020018083116103cc57829003601f168201915b505050505090806004015490806005018054610404906113b3565b80601f0160208091040260200160405190810160405280929190818152602001828054610430906113b3565b801561047d5780601f106104525761010080835404028352916020019161047d565b820191906000526020600020905b81548152906001019060200180831161046057829003601f168201915b5050505050908060060160009054906101000a900460ff16908060060160019054906101000a900473ffffffffffffffffffffffffffffffffffffffff16905088565b600260009054906101000a900473ffffffffffffffffffffffffffffffffffffffff1673ffffffffffffffffffffffffffffffffffffffff163373ffffffffffffffffffffffffffffffffffffffff1614610550576040517f08c379a000000000000000000000000000000000000000000000000000000000815260040161054790611456565b60405180910390fd5b60018060008373ffffffffffffffffffffffffffffffffffffffff1673ffffffffffffffffffffffffffffffffffffffff16815260200190815260200160002060006101000a81548160ff0219169083151502179055508073ffffffffffffffffffffffffffffffffffffffff167f8b4006ca14f23d4e7aa8d120d1ab7c3761d650eefac1a5d6732dbea94b54ea2460405160405180910390a250565b6060806060600080600080600088815260200190815260200160002060405180610100016040529081600082018054610625906113b3565b80601f0160208091040260200160405190810160405280929190818152602001828054610651906113b3565b801561069e5780601f106106735761010080835404028352916020019161069e565b820191906000526020600020905b81548152906001019060200180831161068157829003601f168201915b505050505081526020016001820180546106b7906113b3565b80601f01602080910402602001604051908101604052809291908181526020018280546106e3906113b3565b80156107305780601f1061070557610100808354040283529160200191610730565b820191906000526020600020905b81548152906001019060200180831161071357829003601f168201915b50505050508152602001600282018054610749906113b3565b80601f0160208091040260200160405190810160405280929190818152602001828054610775906113b3565b80156107c25780601f10610797576101008083540402835291602001916107c2565b820191906000526020600020905b8154815290600101906020018083116107a557829003601f168201915b505050505081526020016003820180546107db906113b3565b80601f0160208091040260200160405190810160405280929190818152602001828054610807906113b3565b80156108545780601f1061082957610100808354040283529160200191610854565b820191906000526020600020905b81548152906001019060200180831161083757829003601f168201915b5050505050815260200160048201548152602001600582018054610877906113b3565b80601f01602080910402602001604051908101604052809291908181526020018280546108a3906113b3565b80156108f05780601f106108c5576101008083540402835291602001916108f0565b820191906000526020600020905b8154815290600101906020018083116108d357829003601f168201915b505050505081526020016006820160009054906101000a900460ff161515151581526020016006820160019054906101000a900473ffffffffffffffffffffffffffffffffffffffff1673ffffffffffffffffffffffffffffffffffffffff1673ffffffffffffffffffffffffffffffffffffffff1681525050905060008160800151036109b3576040517f08c379a00000000000000000000000000000000000000000000000000000000081526004016109aa906114c2565b60405180910390fd5b80602001518160400151826060015183608001518460c0015115955095509550955095505091939590929450565b6000600160003373ffffffffffffffffffffffffffffffffffffffff1673ffffffffffffffffffffffffffffffffffffffff16815260200190815260200160002060009054906101000a900460ff16610a6f576040517f08c379a0000000000000000000000000000000000000000000000000000000008152600401610a669061152e565b60405180910390fd5b6000868542604051602001610a86939291906115ab565b60405160208183030381529060405280519060200120905060008060008381526020019081526020016000206004015414610af6576040517f08c379a0000000000000000000000000000000000000000000000000000000008152600401610aed9061162c565b60405180910390fd5b6040518061010001604052808881526020018781526020018681526020018581526020014281526020018481526020016000151581526020013373ffffffffffffffffffffffffffffffffffffffff168152506000808381526020019081526020016000206000820151816000019081610b7091906117f8565b506020820151816001019081610b8691906117f8565b506040820151816002019081610b9c91906117f8565b506060820151816003019081610bb291906117f8565b506080820151816004015560a0820151816005019081610bd291906117f8565b5060c08201518160060160006101000a81548160ff02191690831515021790555060e08201518160060160016101000a81548173ffffffffffffffffffffffffffffffffffffffff021916908373ffffffffffffffffffffffffffffffffffffffff160217905550905050807f341cac654a14b9e14ec65500ee4876b99c950a36ac2cd7ad3284e2b847e8967988604051610c6d91906118ca565b60405180910390a28091505095945050505050565b600160003373ffffffffffffffffffffffffffffffffffffffff1673ffffffffffffffffffffffffffffffffffffffff16815260200190815260200160002060009054906101000a900460ff16610d0e576040517f08c379a0000000000000000000000000000000000000000000000000000000008152600401610d059061152e565b60405180910390fd5b60008060008381526020019081526020016000206004015403610d66576040517f08c379a0000000000000000000000000000000000000000000000000000000008152600401610d5d906114c2565b60405180910390fd5b600160008083815260200190815260200160002060060160006101000a81548160ff021916908315150217905550807f3cc2375f3fc7711ba27361cde93880f578742f9f050acee766bed662d117ba7260405160405180910390a250565b60016020528060005260406000206000915054906101000a900460ff1681565b600260009054906101000a900473ffffffffffffffffffffffffffffffffffffffff1681565b6000604051905090565b600080fd5b600080fd5b6000819050919050565b610e3181610e1e565b8114610e3c57600080fd5b50565b600081359050610e4e81610e28565b92915050565b600060208284031215610e6a57610e69610e14565b5b6000610e7884828501610e3f565b91505092915050565b600081519050919050565b600082825260208201905092915050565b60005b83811015610ebb578082015181840152602081019050610ea0565b60008484015250505050565b6000601f19601f8301169050919050565b6000610ee382610e81565b610eed8185610e8c565b9350610efd818560208601610e9d565b610f0681610ec7565b840191505092915050565b6000819050919050565b610f2481610f11565b82525050565b60008115159050919050565b610f3f81610f2a565b82525050565b600073ffffffffffffffffffffffffffffffffffffffff82169050919050565b6000610f7082610f45565b9050919050565b610f8081610f65565b82525050565b6000610100820190508181036000830152610fa1818b610ed8565b90508181036020830152610fb5818a610ed8565b90508181036040830152610fc98189610ed8565b90508181036060830152610fdd8188610ed8565b9050610fec6080830187610f1b565b81810360a0830152610ffe8186610ed8565b905061100d60c0830185610f36565b61101a60e0830184610f77565b9998505050505050505050565b61103081610f65565b811461103b57600080fd5b50565b60008135905061104d81611027565b92915050565b60006020828403121561106957611068610e14565b5b60006110778482850161103e565b91505092915050565b600060a082019050818103600083015261109a8188610ed8565b905081810360208301526110ae8187610ed8565b905081810360408301526110c28186610ed8565b90506110d16060830185610f1b565b6110de6080830184610f36565b9695505050505050565b600080fd5b600080fd5b7f4e487b7100000000000000000000000000000000000000000000000000000000600052604160045260246000fd5b61112a82610ec7565b810181811067ffffffffffffffff82111715611149576111486110f2565b5b80604052505050565b600061115c610e0a565b90506111688282611121565b919050565b600067ffffffffffffffff821115611188576111876110f2565b5b61119182610ec7565b9050602081019050919050565b82818337600083830152505050565b60006111c06111bb8461116d565b611152565b9050828152602081018484840111156111dc576111db6110ed565b5b6111e784828561119e565b509392505050565b600082601f830112611204576112036110e8565b5b81356112148482602086016111ad565b91505092915050565b600080600080600060a0868803121561123957611238610e14565b5b600086013567ffffffffffffffff81111561125757611256610e19565b5b611263888289016111ef565b955050602086013567ffffffffffffffff81111561128457611283610e19565b5b611290888289016111ef565b945050604086013567ffffffffffffffff8111156112b1576112b0610e19565b5b6112bd888289016111ef565b935050606086013567ffffffffffffffff8111156112de576112dd610e19565b5b6112ea888289016111ef565b925050608086013567ffffffffffffffff81111561130b5761130a610e19565b5b611317888289016111ef565b9150509295509295909350565b61132d81610e1e565b82525050565b60006020820190506113486000830184611324565b92915050565b60006020820190506113636000830184610f36565b92915050565b600060208201905061137e6000830184610f77565b92915050565b7f4e487b7100000000000000000000000000000000000000000000000000000000600052602260045260246000fd5b600060028204905060018216806113cb57607f821691505b6020821081036113de576113dd611384565b5b50919050565b7f4f6e6c792061646d696e2063616e20706572666f726d2074686973206163746960008201527f6f6e000000000000000000000000000000000000000000000000000000000000602082015250565b6000611440602283610e8c565b915061144b826113e4565b604082019050919050565b6000602082019050818103600083015261146f81611433565b9050919050565b7f43726564656e7469616c20646f6573206e6f7420657869737400000000000000600082015250565b60006114ac601983610e8c565b91506114b782611476565b602082019050919050565b600060208201905081810360008301526114db8161149f565b9050919050565b7f4e6f7420617574686f72697a6564000000000000000000000000000000000000600082015250565b6000611518600e83610e8c565b9150611523826114e2565b602082019050919050565b600060208201905081810360008301526115478161150b565b9050919050565b600081905092915050565b600061156482610e81565b61156e818561154e565b935061157e818560208601610e9d565b80840191505092915050565b6000819050919050565b6115a56115a082610f11565b61158a565b82525050565b60006115b78286611559565b91506115c38285611559565b91506115cf8284611594565b602082019150819050949350505050565b7f43726564656e7469616c20616c72656164792065786973747300000000000000600082015250565b6000611616601983610e8c565b9150611621826115e0565b602082019050919050565b6000602082019050818103600083015261164581611609565b9050919050565b60008190508160005260206000209050919050565b60006020601f8301049050919050565b600082821b905092915050565b6000600883026116ae7fffffffffffffffffffffffffffffffffffffffffffffffffffffffffffffffff82611671565b6116b88683611671565b95508019841693508086168417925050509392505050565b6000819050919050565b60006116f56116f06116eb84610f11565b6116d0565b610f11565b9050919050565b6000819050919050565b61170f836116da565b61172361171b826116fc565b84845461167e565b825550505050565b600090565b61173861172b565b611743818484611706565b505050565b5b818110156117675761175c600082611730565b600181019050611749565b5050565b601f8211156117ac5761177d8161164c565b61178684611661565b81016020851015611795578190505b6117a96117a185611661565b830182611748565b50505b505050565b600082821c905092915050565b60006117cf600019846008026117b1565b1980831691505092915050565b60006117e883836117be565b9150826002028217905092915050565b61180182610e81565b67ffffffffffffffff81111561181a576118196110f2565b5b61182482546113b3565b61182f82828561176b565b600060209050601f8311600181146118625760008415611850578287015190505b61185a85826117dc565b8655506118c2565b601f1984166118708661164c565b60005b8281101561189857848901518255600182019150602085019450602081019050611873565b868310156118b557848901516118b1601f8916826117be565b8355505b6001600288020188555050505b505050505050565b600060208201905081810360008301526118e48184610ed8565b90509291505056fea2646970667358221220884e9c2ab901b0b7d9d593c504408fa136f2f0ed237a74797b7980715821ded464736f6c63430008130033",
  "immutableReferences": {},
  "source": "// SPDX-License-Identifier: MIT\r\npragma solidity ^0.8.0;\r\n\r\ncontract CredentialRegistry {\r\n    \r\n    struct Credential {\r\n        string studentId;\r\n        string studentName;\r\n        string degree;\r\n        string major;\r\n        uint256 issueDate;\r\n        string ipfsHash;  // Document stored on IPFS\r\n        bool isRevoked;\r\n        address issuer;\r\n    }\r\n    \r\n    // Mapping: credentialId => Credential\r\n    mapping(bytes32 => Credential) public credentials;\r\n    \r\n    // Mapping: university address => authorized status\r\n    mapping(address => bool) public authorizedIssuers;\r\n    \r\n    address public admin;\r\n    \r\n    // Events\r\n    event CredentialIssued(bytes32 indexed credentialId, string studentId);\r\n    event CredentialRevoked(bytes32 indexed credentialId);\r\n    event IssuerAuthorized(address indexed issuer);\r\n    \r\n    modifier onlyAdmin() {\r\n        require(msg.sender == admin, \"Only admin can perform this action\");\r\n        _;\r\n    }\r\n    \r\n    modifier onlyAuthorized() {\r\n        require(authorizedIssuers[msg.sender], \"Not authorized\");\r\n        _;\r\n    }\r\n    \r\n    constructor() {\r\n        admin = msg.sender;\r\n        authorizedIssuers[msg.sender] = true;\r\n    }\r\n    \r\n    // Authorize university to issue credentials\r\n    function authorizeIssuer(address _issuer) public onlyAdmin {\r\n        authorizedIssuers[_issuer] = true;\r\n        emit IssuerAuthorized(_issuer);\r\n    }\r\n    \r\n    // Issue a credential\r\n    function issueCredential(\r\n        string memory _studentId,\r\n        string memory _studentName,\r\n        string memory _degree,\r\n        string memory _major,\r\n        string memory _ipfsHash\r\n    ) public onlyAuthorized returns (bytes32) {\r\n        \r\n        bytes32 credentialId = keccak256(\r\n            abi.encodePacked(_studentId, _degree, block.timestamp)\r\n        );\r\n        \r\n        require(credentials[credentialId].issueDate == 0, \"Credential already exists\");\r\n        \r\n        credentials[credentialId] = Credential({\r\n            studentId: _studentId,\r\n            studentName: _studentName,\r\n            degree: _degree,\r\n            major: _major,\r\n            issueDate: block.timestamp,\r\n            ipfsHash: _ipfsHash,\r\n            isRevoked: false,\r\n            issuer: msg.sender\r\n        });\r\n        \r\n        emit CredentialIssued(credentialId, _studentId);\r\n        return credentialId;\r\n    }\r\n    \r\n    // Verify a credential\r\n    function verifyCredential(bytes32 _credentialId) \r\n        public \r\n        view \r\n        returns (\r\n            string memory studentName,\r\n            string memory degree,\r\n            string memory major,\r\n            uint256 issueDate,\r\n            bool isValid\r\n        ) \r\n    {\r\n        Credential memory cred = credentials[_credentialId];\r\n        require(cred.issueDate != 0, \"Credential does not exist\");\r\n        \r\n        return (\r\n            cred.studentName,\r\n            cred.degree,\r\n            cred.major,\r\n            cred.issueDate,\r\n            !cred.isRevoked\r\n        );\r\n    }\r\n    \r\n    // Revoke a credential (in case of fraud)\r\n    function revokeCredential(bytes32 _credentialId) public onlyAuthorized {\r\n        require(credentials[_credentialId].issueDate != 0, \"Credential does not exist\");\r\n        credentials[_credentialId].isRevoked = true;\r\n        emit CredentialRevoked(_credentialId);\r\n    }\r\n}",
  "sourcePath": "C:\\Users\\Paresh Parmar\\Documents\\Projects\\VerifiChain\\blockchain\\contracts\\CredentialRegistry.sol",
  "compiler": {
    "name": "solc",
    "version": "0.8.19+commit.7dd6d404.Emscripten.clang"
  },
  "schemaVersion": "3.4.16",
  "updatedAt": "2026-01-05T07:39:15.807Z",
  "networkType": "ethereum",
  "devdoc": {
    "kind": "dev",
    "methods": {},
    "version": 1
  },
  "userdoc": {
    "kind": "user",
    "methods": {},
    "version": 1
  }
}